:0308DD000108000F
:10088C00D290C2A0C2A120900D0508D2A07F327ECA
:10089C00001208BD8002C2A0E508B40504D2A180F4
:1008AC0002C2A1D3E5086480948540DAE4F508809F
:0108BC00D566
:1008BD00E4FDFCC3ED9FEC9E5015E4FBFA0BBB0071
:0F08CD00010ABA04F8BBFBF50DBD00010C80E475
:0108DC0022F9
:03000000020800F3
:0C080000787FE4F6D8FD758108020847F7
:10080C0002088CE493A3F8E493A34003F68001F26E
:10081C0008DFF48029E493A3F85407240CC8C333ED
:10082C00C4540F4420C8834004F456800146F6DFBC
:10083C00E4800B01020408102040809008DDE47E67
:10084C00019360BCA3FF543F30E509541FFEE493B1
:10085C00A360010ECF54C025E060A840B8E493A378
:10086C00FAE493A3F8E493A3C8C582C8CAC583CAA3
:10087C00F0A3C8C582C8CAC583CADFE9DEE780BE5B
:0108E0000017
:00000001FF
